:020000040800F2
:10000000001000209D350008AD040008AF04000872
:1000100000000000000000000000000000000000E0
:10002000000000000000000000000000B104000813
:100030000000000000000000B3040008B504000840
:10004000ED350008ED350008ED350008ED35000808
:10005000ED350008ED350008ED350008ED350008F8
:1000600000000000ED040008ED350008000000006D
:10007000BD040008CD040008ED35000800000000B4
:10008000ED350008ED35000800000000DD04000833
:1000900000000000ED350008ED350008ED350008E2
:1000A00000000000ED35000800000000FD0400081D
:1000B000ED35000800000000000000000000000016
:1000C000002243088B4274D303098B425FD3030A97
:1000D0008B4244D3030B8B4228D3030C8B420DD3AA
:1000E000FF22090212BA030C8B4202D31212090238
:1000F00065D0030B8B4219D300E0090AC30B8B4276
:1001000001D3CB03C01A5241830B8B4201D38B0323
:10011000C01A5241430B8B4201D34B03C01A5241C8
:10012000030B8B4201D30B03C01A5241C30A8B420B
:1001300001D3CB02C01A5241830A8B4201D38B02F6
:10014000C01A5241430A8B4201D34B02C01A52419A
:10015000030A8B4201D30B02C01A5241CDD2C3090C
:100160008B4201D3CB01C01A524183098B4201D388
:100170008B01C01A524143098B4201D34B01C01A73
:10018000524103098B4201D30B01C01A5241C308EB
:100190008B4201D3CB00C01A524183088B4201D35A
:1001A0008B00C01A524143088B4201D34B00C01A46
:1001B0005241411A00D20146524110467047FFE7B2
:1001C00001B5002000F0F0F802BDC0460029F7D0CC
:1001D00076E7704703460B437FD4002243088B42E7
:1001E00074D303098B425FD3030A8B4244D3030BBE
:1001F0008B4228D3030C8B420DD3FF22090212BA83
:10020000030C8B4202D31212090265D0030B8B42FE
:1002100019D300E0090AC30B8B4201D3CB03C01AE8
:100220005241830B8B4201D38B03C01A5241430BC3
:100230008B4201D34B03C01A5241030B8B4201D3B3
:100240000B03C01A5241C30A8B4201D3CB02C01A1E
:100250005241830A8B4201D38B02C01A5241430A96
:100260008B4201D34B02C01A5241030A8B4201D385
:100270000B02C01A5241CDD2C3098B4201D3CB012C
:10028000C01A524183098B4201D38B01C01A5241DB
:1002900043098B4201D34B01C01A524103098B42DF
:1002A00001D30B01C01A5241C3088B4201D3CB00CA
:1002B000C01A524183088B4201D38B00C01A5241AD
:1002C00043088B4201D34B00C01A5241411A00D25D
:1002D00001465241104670475DE0CA0F00D04942C6
:1002E000031000D34042534000229C4603098B4236
:1002F0002DD3030A8B4212D3FC22890112BA030ABE
:100300008B420CD3890192118B4208D3890192113F
:100310008B4204D389013AD0921100E08909C309C4
:100320008B4201D3CB01C01A524183098B4201D3C6
:100330008B01C01A524143098B4201D34B01C01AB1
:10034000524103098B4201D30B01C01A5241C30829
:100350008B4201D3CB00C01A524183088B4201D398
:100360008B00C01A5241D9D243088B4201D34B00B3
:10037000C01A5241411A00D20146634652415B10F5
:10038000104601D34042002B00D5494270476346D6
:100390005B1000D3404201B5002000F005F802BD1B
:1003A0000029F8D016E770477047C0460023C25CAA
:1003B0000133002AFBD1581E704700000448054B4A
:1003C00010B5834203D0044B002B00D0984710BDDA
:1003D000D4000020D4000020000000000648074997
:1003E000091A8B10C90FC91810B5491003D0044B56
:1003F000002B00D0984710BDD4000020D40000206E
:100400000000000010B5074C2378002B09D1FFF73E
:10041000D5FF054B002B02D0044800E000BF0123AC
:10042000237010BDD400002000000000A43D00088F
:10043000054B10B5002B03D00449054800E000BF70
:10044000FFF7CCFF10BDC04600000000D800002020
:10045000A43D000870B500260C4C0D4D641BA41083
:10046000A64209D1002603F09DFC0A4C0A4D641BEC
:10047000A410A64205D170BDB300EB5898470136D1
:10048000EEE7B300EB5898470136F2E71C4200084C
:100490001C420008204200081C4200080300821889
:1004A000934200D1704719700133F9E77047FEE7B6
:1004B0007047704710B501F075FF10BD10B50248C8
:1004C00001F0C2FD10BDC046CC04002010B50248AA
:1004D00002F0A2F910BDC0466804002010B5024821
:1004E00002F09AF910BDC046E803002010B5024B97
:1004F000186B01F029FB10BDCC04002010B5024898
:1005000002F08EFF10BDC0469C0300207047000023
:1005100070B588B00500204B596B01221143596317
:10052000596B114000910099996B11439963996B34
:100530000A400192019A1A6C802149030A431A6405
:100540001B6C0B400293029B3F2303933C3B0493A1
:1005500000260596A02003A9C00501F04FFF00204A
:1005600001F044FF0D4C0E4B23606660A6608023B3
:10057000E3608033236180231B0163612023A36137
:10058000E661200001F01CFA200001F0E7F92C637D
:10059000656208B070BDC04600100240F000002047
:1005A0000800024010B582B004000268174B9A425E
:1005B00005D02268164B9A4214D002B010BD154BDC
:1005C0001A6C802109010A431A641B6C0B400093CA
:1005D000009B002200210D2002F02AF80D2002F0DD
:1005E0002BF8E6E70B4B1A6C802109020A431A64C8
:1005F0001B6C0B400193019B00220021132002F091
:1006000017F8132002F018F8D7E7C046002C014075
:10061000002000400010024000B587B0104B1A6C5B
:100620008021C9010A431A641B6C0B400093009B94
:10063000C0230193BE3B0293013B03930233049317
:100640000023059301A9074801F0D8FE00220021EC
:100650001B2001F0EDFF1B2001F0EEFF07B000BDF5
:10066000001002400004005000B587B00B4AD16B67
:1006700002231943D163D26B1A400092009A4022A0
:1006800001920293013B03933D3A04920593A0200B
:1006900001A9C00501F0B2FE07B000BD0010024084
:1006A00070B588B0184B5A6B02252A435A635A6BAF
:1006B0002A400092009A5A6B012422435A635A6BD3
:1006C00022400192019A596B2022114359635B6BBE
:1006D0001A400292029B802303930494059406958A
:1006E000A026F60503A9300001F088FE80235B01F7
:1006F0000393002304930594069503A9300001F0A9
:100700007DFE08B070BDC0460010024010B500224A
:100710000021092001F08CFF092001F08DFF10BDA0
:1007200010B502680D4B9A4200D010BD0C490C78F0
:100730000C4B5878421CD2B25A70181884700F2093
:1007400002405A700848012202F0EAFD0748036897
:1007500000225A6202F032F8E7E7C0460038014052
:10076000640100204C0100209C030020E8030020CD
:100770000268064B9A4200D07047054A137801334D
:10078000DBB213700F210B401370F5E70038014006
:1007900038010020FEE7000000B583B0394B196B2B
:1007A0008022520311431963196B374801401963C2
:1007B000196C114319641B6C13400193019B33485E
:1007C000334B036001F038FD00284BD12F48002344
:1007D000436008218160C3600122026141610276A9
:1007E00043768376C36103621C31425483620533CE
:1007F000C36201F0ABFA002836D1264980235B01A1
:100800004B6000230B60214801F08CFC00282DD1A7
:10081000204901230B601D4801F084FC002827D1EA
:100820001C4902230B60194801F07CFC002821D1EF
:10083000184903230B60154801F074FC00281BD1F4
:10084000144904230B60114801F06CFC002815D1F9
:10085000104905230B600D4801F064FC00280FD1FE
:1008600003B000BDFFF796FFFFF794FFFFF792FF7D
:10087000FFF790FFFFF78EFFFFF78CFFFFF78AFF70
:10088000FFF788FF00100240FFFFEFFFCC040020BD
:1008900000240140C004002010B50A480A4B036040
:1008A000E1235B02436000238360C36003618361D3
:1008B0000C33436102F0CEFC002800D110BDFFF7DD
:1008C00069FFC0469C0300200038014030B58BB062
:1008D0001348144B0360FE23C360FB3B43600023BB
:1008E0000361836002F0A2F8002817D10025089563
:1008F00009950B4C08A9200001F0ECFC6023019342
:10090000029503950595002201A9200002F0E4F864
:100910000021200002F064F90BB030BDFFF73AFF70
:10092000280400200004004010B582B01048114B8C
:100930000360F923C360104B4360002303618360AD
:100940004361836102F058F800280ED12023009300
:1009500000230193064C6946200001F0BBFC23688C
:10096000022252421A6102B010BDFFF713FFC046C7
:10097000E803002000200040BF5D000010B582B0F9
:100980001148124B03600923C360E6334360002320
:10099000036183604361836102F02EF800280FD168
:1009A0002023009300230193074C6946200001F0A7
:1009B00091FC200001F002FF002803D102B010BD1D
:1009C000FFF7E8FEFFF7E6FE68040020002C014078
:1009D00070B582B001F0DAFC02F0B0FD914C30232A
:1009E000237002F010FEFFF75BFEFFF78FFEFFF7AC
:1009F000D3FEFFF751FFFFF769FFFFF795FFFFF702
:100A0000BDFF201D00F0F2F9200000F0BBFC86487D
:100A100002F024FE02E00A2001F0D6FC814B1B7894
:100A2000302BF8D07F4A5370002400258FE0FF213F
:100A300001407E4802F0F0FD0A2E00D08CE07C4898
:100A400000F0E8F988E05A1CD2B27A490A70CB1853
:100A500098780F2313400B706B46D91D08707648A9
:100A6000002200F0E7FB002800D183E06B46D87934
:100A7000724A51784B1CDBB25370511888700F21A9
:100A80000B40537014781C1B0C40631E9C41E4B255
:100A900070E0694801226B46D91D00F0CBFB0028AD
:100AA00073D06B46D879654A51784B1CDBB25370D2
:100AB000511888700F210B40537014781C1B0C4088
:100AC000631E9C41E4B260E06B46DE1D0023337080
:100AD0005B4A13705B4802F09FFD574802223100C9
:100AE00000F0A8FB55E0554B9B189B7856490B70BE
:100AF0005648012202F0ECFB55E0321D9200D2185C
:100B000004325348310002F0A9FD35004FE001F0F6
:100B100055FC444B8C2292009B58C01AFA235B0070
:100B2000984214D93F4B043A9B5C002B0FD03D4BAD
:100B300000269E543E4800F063F94649300002F01A
:100B40008DFD04E0374B444A9B5C002B62D102F0E0
:100B50005EFD061E00DD6AE7364A137852789A4237
:100B600008D03648417801310F220A40017891427D
:100B700000D068E7314A537812789B1A0F2213404D
:100B80005A1E9341DBB2A34283D12D4B1B78002B1D
:100B90009AD132492D48012202F0C2FB274B1A7824
:100BA0005B789A429FD11F4B1E78AE42A5D11D4B58
:100BB00058781B78C01A303040B23021FFF7F0FB74
:100BC00048B230303021FFF7EBFBCEB2300000F0FE
:100BD00031FC234B1B685863002EB3D1154B1A7898
:100BE0005B789A42AED1154B1A785B789A42A9D1BC
:100BF0000C4B194A9B5C002B89D10A4E1300012231
:100C0000F254184802F008FD01F0D8FB8C239B0039
:100C1000F0509CE7034B002199541349002002F047
:100C2000FBFC94E768010020143E0008343E0008F5
:100C30006C0100204C0100203C0200203801002003
:100C4000340100204C3E0008600100209C0300207D
:100C5000583E0008743E00082D0200006401002088
:100C6000280400206C3E0008843E000870B584B063
:100C7000A02000228021C00501F087FC0023002471
:100C800011E002A82E4D2E680296AD888580C55CC5
:100C90002C48AD002858824203D901229A401443BF
:100CA000E4B20133DBB2052B16D8254A1168009156
:100CB000928869468A806A46D05C224A80008058C1
:100CC000214A5D005219D2889042DAD901229A4015
:100CD000D24352B21440E4E71C4801F029F900283D
:100CE00004D0FFF757FD6040C0B26408002CFAD171
:100CF0002F231B1ADBB22F2B1FD8134A1079C018D1
:100D000040B23021FFF74CFB48B230303021FFF7C2
:100D100047FBCCB2601C40B23021FFF741FB48B228
:100D200030303021FFF73CFBC9B2094B1B788B42B6
:100D300003D0074B1C70044B1C7004B070BDC04640
:100D4000F83D0008A804002068010020CC04002021
:100D5000C200002010B5040002681A4B9A4204D069
:100D60002268194B9A4225D010BD184A13880133C6
:100D70009BB21380022B11D0154A1649525C002AEF
:100D800015D0154A9342EBDB104B00221A80A020AD
:100D900001328021C00501F0F8FBE1E70F4910485E
:100DA000062201F077F80028DAD0FFF7F3FCFA22E8
:100DB0005200E7E70B4B01221A700B4801F010FDBF
:100DC000D2E7C046002C014000200040C0000020B7
:100DD000680100202D02000010270000A804002058
:100DE000CC04002034010020E803002010B50100ED
:100DF0000222024800F079F810BDC04600700008D9
:100E000010B501000222024800F077F810BDC0467C
:100E10000070000870B50500234802F01FFC19207F
:100E200001F0D2FA2978214802F018FC192001F0CB
:100E3000CBFA1F4802F012FC192001F0C5FA002479
:100E4000052C0BDC6300EB185A881A48210002F0CD
:100E500005FC192001F0B8FA0134F1E7A97B164826
:100E600002F0FCFB192001F0AFFAE97B134802F015
:100E7000F5FB192001F0A8FA114802F0EFFB192048
:100E800001F0A2FA002409E0211D890069180D482B
:100E900002F0E4FB192001F097FA01342F2CF3DD66
:100EA000094802F0DBFB70BD903E00089C3E000844
:100EB000B03E0008BC3E0008D03E0008DC3E000802
:100EC000EC3E0008FC3E0008303E000800B587B04C
:100ED00000230593033300930390023B049305A979
:100EE000684601F015FF07B000BD10B5030008000B
:100EF000D201190002F04DFF10BD70B504000D00C5
:100F0000160001F0C5FE23050DD0F6013619B442D6
:100F10000DD22A002100012002F00CF80028F6D1A1
:100F200080348035F3E72000FFF7D0FFEDE701F0D4
:100F3000C7FE70BD70B504000D000178064BAA0015
:100F4000D2588900C958054802F066FB2570002375
:100F5000A370E37070BDC04674400008003F0008F5
:100F600010B5040043783F229343402B18D0C02B88
:100F700001D0802B13D163789B069B0E1A0021327F
:100F8000D200A2185268002A25D0A01D904763788D
:100F90009B06144A1B0E9958134802F03DFB10BDE6
:100FA00043789B069B0E1A002132D2001258002A69
:100FB0000AD00630904763789B060A4A1B0E995860
:100FC0000A4802F029FBEAE7064A9B0099580848BC
:100FD00002F022FBE3E7034A9B009958054802F020
:100FE0001BFBDCE79C400008483F0008143F00085A
:100FF000283F00085C3F000870B504000D00002A7F
:1010000004D0022A30D00025280070BD063080228E
:1010100052000021FFF742FA0023A3802A78627071
:10102000D3B29B09022B17D0032B0FD0012B07D073
:10103000920617D0002500212000FFF77BFFE3E791
:1010400001212000FFF776FF0125DDE704212000C4
:10105000FFF770FF0125D7E705212000FFF76AFFA2
:101060000025D1E70125E6E70021FFF763FF002512
:10107000CAE710B50400002A03D0022A29D00020B4
:1010800010BD8378012B08D183880A789B1801331F
:101090009BB283800B700120F2E783880A781202EA
:1010A0009B189BB283801B0A0B70FFF759FFA38824
:1010B000013B9BB2A380002B05D002212000FFF74B
:1010C00039FF0120DCE703212000FFF733FF012077
:1010D000D6E70021FFF72EFF0020D1E710B504006E
:1010E000002A03D0022A1ED0002010BD8278437847
:1010F0009B069B0E0E49CB5C9A4201D00120F4E77F
:101100008388013B9BB28380002B04D00221FFF730
:1011100011FF0120E9E7FFF723FF03212000FFF77C
:1011200009FF0120E1E70021FFF704FF0020DCE7D1
:101130009040000810B5012A0AD0022A1CD0002ACB
:1011400001D0002010BD0021FFF7F4FE0020F9E7D8
:10115000C378013BC3189B790B70C27843789B0618
:101160009B0E0849CB5C9A4201D00120EAE700219E
:10117000FFF7E0FE0120E5E70021FFF7DBFE00209E
:10118000E0E7C0469040000810B50400002A03D0F4
:10119000022A17D0002010BD8278531E0978C31888
:1011A000997143789B069B0E0949CB5C9A4201D00A
:1011B0000120F0E7FFF7D4FE00212000FFF7BAFE80
:1011C0000120E8E70021FFF7B5FE0020E3E7C04675
:1011D0009040000810B5002A03D0022A11D0002048
:1011E00010BD8278531E0978C318997143789B0605
:1011F0009B0E0649CB5C9A42F1D10621FFF79AFE7D
:10120000EDE70021FFF796FEE9E7C04690400008B1
:1012100010B50400002A09D0022A09D1FFF7A0FE68
:1012200000212000FFF786FE002002E0012000E000
:10123000002010BD10B5002A09D1837801338370D6
:101240000378062B1ED89B000F4CE3589F46012ABB
:10125000F6D1C3780133C370F2E7FFF7CDFE10BDBE
:10126000FFF707FFFBE7FFF739FFF8E7FFF762FF3C
:10127000F5E7FFF789FFF2E7FFF7ACFFEFE7FFF7CE
:10128000C7FFECE70020EAE7803F00087047302303
:1012900003707047044B1B6802781A718B2292000E
:1012A000012199547047C0460C050020024B1B6871
:1012B0001B7903707047C0460C050020044B1B6867
:1012C00002789A748B229200012199547047C0468B
:1012D0000C050020024B1B689B7C03707047C046C6
:1012E0000C050020024B1B6802785A707047C046FC
:1012F0000C050020024B1B681B7803707047C0462A
:101300000C050020044B1B680278DA748B229200D3
:10131000012199547047C0460C050020024B1B6800
:10132000DB7C03707047C0460C05002010B502300E
:1013300001220100FFF7E1FD10BD10B5040080217E
:10134000A0204901C00501F019F9207010BD00006E
:1013500010B50100054B1C6820001430C02202F0BB
:1013600018FD8B239B000122E25410BD0C050020C8
:1013700010B5034B19681431C02202F00AFD10BDEC
:101380000C0500201C4B18601C4BF42252008350AB
:101390000023043A83501A4AF82149004250F622A9
:1013A000520083500C328350164A0431425080223E
:1013B00092008350144B043A8350144B10328350E4
:1013C000134B04328350134B08328350124B043AB0
:1013D0008350124B0C3A8350114B043A8350114BFB
:1013E0001C328350104B043A8350104B0C32835004
:1013F0000F4B043A835070470C0500202D13000852
:101400008D1200083B1300088F120008AD1200086F
:1014100095120008BD120008D512000851130008EB
:1014200071130008E5120008F51200080513000802
:101430001D13000810B5002809D00138C3001B1A7D
:10144000DB00181A2E21FEF7C5FE1930C0B210BD00
:101450000D494B681B0C1B040C4A12681343802275
:10146000920113434B60002306E0094A9900885813
:10147000084A88500133DBB22F2BF6D9064B802265
:1014800092059A607047C04600100240040FFF1F8B
:10149000000000080000002000ED00E030B587B03B
:1014A00001A8194B0200190038C938C209C909C27C
:1014B000164B9B683822110019401A4210D113486C
:1014C0000368DB0A313A13404068400B0240042AAB
:1014D00000D81100890001AA8858D84007B030BD53
:1014E0000A4B9A6838231340082B0AD0074B9A6896
:1014F00038231340182B01D00020EFE78020000292
:10150000ECE70348EAE7C046003E0008001002404E
:1015100000366E0170B5041E00D118E10368DB07C8
:101520003DD5934B9A6838231340082B2FD043683E
:10153000002B09D08368002B00D10CE18C490A698B
:101540000C20824313430B61636880225202934252
:101550004AD0A022D20293424DD0854B1A688549C9
:101560000A401A601A6884490A401A606368002BAE
:101570004DD000F023FF05007D4B1B689B030ED46C
:1015800000F01CFF401BC828F6D90320EAE0784B86
:101590001B689B0303D54368002B00D1D9E0236867
:1015A0009B075DD5724B9B6838221A4277D1704BEE
:1015B0001B685B0503D5E368002B00D1CDE06C4AC6
:1015C00053681B0C1B0461690B43536000F0F6FE6B
:1015D0000500674B1B685B0527D400F0EFFE401B3E
:1015E0000228F6D90320BDE0614A116880235B021E
:1015F0000B431360BAE75E4B19688022D2020A439C
:101600001A601968802252020A431A60AEE700F09D
:10161000D5FE0500564B1B689B03C0D500F0CEFEDF
:10162000401BC828F6D903209CE0514D2B68534A33
:101630001340226913432B60FFF730FFAA68120A98
:101640000F2313404E4A9B009A581F231340D84043
:101650004C4B18604C4B186800F06CFE00287ED193
:1016600023681B077DD5424B9A6838231340182BFB
:101670004DD0A369002B55D03D4A136E01210B4379
:10168000136600F09BFE0400394B1B6E9B0747D48A
:1016900000F094FE001B0228F6D9032062E0E36804
:1016A000002B21D0324A136834490B4021690B4387
:1016B0001360116880235B000B43136000F07EFE13
:1016C00005002B4B1B685B0506D400F077FE401B22
:1016D0000228F6D9032045E0254A53681B0C1B0459
:1016E00061690B435360BBE7214A136827490B40EC
:1016F000136000F063FE05001D4B1B685B05AFD552
:1017000000F05CFE401B0228F6D903202AE0184BAB
:101710001B6E9B0727D5A369002B26D0002021E054
:1017200000201FE0124A136E01218B43136600F064
:1017300045FE04000E4B1B6E9B0706D500F03EFED7
:10174000001B0228F6D903200CE000200AE001204B
:1017500008E0012006E0012004E0012002E0012071
:1017600000E0002070BD0020FCE70120FAE7C04641
:1017700000100240FFFFFEFFFFFFFBFFFFC7FFFF60
:10178000E8400008C4000020CC000020FFFEFFFF5E
:1017900070B504000D00002800D19AE04F4B1A6884
:1017A000012313408B421FD323689A070ED55B0792
:1017B00005D54B4A9168E023DB010B439360484A0F
:1017C000936848490B40A1680B4393602368DB078B
:1017D00044D56368012B1ED0002B39D1404A1268D2
:1017E00052051CD401205CE03C4A136801218B4364
:1017F0002B43136000F0E2FD0600384B1A6801230A
:101800001340AB42D0D000F0D9FD801B364A904245
:10181000F3D9032045E0324A126892035BD5304980
:101820008A680720824313438B6000F0C7FD0600DF
:101830002B4B9B6838221A406368DB009A420DD01C
:1018400000F0BCFD801B284B9842F1D9032028E012
:10185000234A126E9207E2D4012022E01F4B1A683D
:1018600001231340AB421DD823685B0706D51C4AF1
:1018700093681E490B40E1680B439360FFF70EFE2F
:10188000174B9A68120A0F231340194A9B009A5863
:101890001F231340D840174B1860174B186800F0EF
:1018A00049FD70BD0D4A136801218B432B43136022
:1018B00000F084FD0600094B1A6801231340AB4277
:1018C000D2D000F07BFD801B074B9842F3D9032058
:1018D000E7E70120E5E70120E3E7C04600200240FA
:1018E00000100240FFF0FFFF88130000FF8FFFFF92
:1018F000E8400008C4000020CC000020014B18681C
:101900007047C046C400002010B5FFF7F7FF064B34
:101910009A68120B07231340044A9B009A581F230E
:101920001340D84010BDC04600100240C840000817
:1019300070B5066CC56B0124B4406C6004686360CC
:101940004368102B04D0036899600368DA6070BDA7
:1019500003689A600368D960F9E7000070B5041E57
:1019600026D00568134BE8181421FEF7A9FB800068
:101970002064114BE3632121022363542A680F4B37
:101980001A406368A0680343E06803432069034387
:1019900060690343A0690343E069034313432B6079
:1019A0000023A363012262541F32A354002070BDA0
:1019B0000120FCE7F8FFFDBF000002400FC0FFFF61
:1019C00070B5041E25D0026813680126B343136066
:1019D000036800251D6003685D6003689D600368FF
:1019E000DD6000680C4B9C4660441421FEF768FBE8
:1019F00080002064094BE36386405E60A562E56277
:101A000025636563A5632123E554013BE55400206C
:101A100070BD0120FCE7C046F8FFFDBF000002409A
:101A200070B504002020205C012832D02020012540
:101A300025540130205C012804D020230022E254E8
:101A4000022070BD2030013525540020A063256898
:101A500028680126B04328602000FFF769FFE36A89
:101A6000002B0BD0226813680E210B4313602268F1
:101A7000136801210B4313600020E2E7226813681A
:101A800004218B4313602268136806310B431360F3
:101A9000EDE70220D5E710B52123C35C022B06D069
:101AA000042383631C330022C254012010BD02684A
:101AB00013680E218B43136001680A6801239A435F
:101AC0000A60016CC26B1C008C405460212283545C
:101AD0001F330022C2540020E8E7000010B5212384
:101AE000C35C022B03D004238363012010BD026872
:101AF00013680E218B431360026813680D398B4302
:101B0000136003680D4A934214D00D4A93420FD0DC
:101B1000802252000B4B5A6021230122C254013B08
:101B20000022C254436B002B06D098470020DDE70B
:101B30001022EFE70122EDE70020D7E7080002407E
:101B40001C0002400000024070B5C36B1A680468B4
:101B50002568016C04238B401A421CD06B071AD5F0
:101B600023689B0603D423680422934323600368FD
:101B70002A4A93420DD02A4A934208D08022D200AA
:101B8000284B5A60C36A002B00D0984770BD402292
:101B9000F6E70422F4E702238B401A4222D0AB0777
:101BA00020D523689B0606D423680A22934323602A
:101BB0002123093AC2540368184A934210D0184AA4
:101BC00093420BD080229200164B5A6020230022B1
:101BD000C254836A002BD9D09847D7E72022F3E775
:101BE0000222F1E708238B401A42CFD02D07CDD532
:101BF00023680E2293432360016CC26B01231C00F7
:101C00008C4054608363212283541F330022C254CA
:101C1000036B002BBAD09847B8E7C04608000240D3
:101C20001C0002400000024000B583B00023019375
:101C300003689A68D20720D49968114A11420AD1E0
:101C40009A6801210A439A600E4B18680E49FEF704
:101C500037FA01900CE0836B102213438363C36B4C
:101C60000F3A1343C363012008E0019B013B01933A
:101C7000019B002BF9D1002000E0002003B000BD43
:101C800015000080C400002040420F0070B5040021
:101C9000026893685B0721D593685B0706D5936854
:101CA000DB0703D5936810210B43936000F086FB9C
:101CB000050023689B685B070ED500F07FFB401B87
:101CC0000228F6D9A36B10221343A363E36B0F3AE8
:101CD0001343E363012002E0002000E0002070BD18
:101CE00070B5040002689368DB072DD59168052361
:101CF0000B40012B09D0836B102213438363C36B0A
:101D00000F3A1343C36301201FE0936801218B4303
:101D10009360036802221A6000F050FB05002368FC
:101D20009B68DB070ED500F049FB401B0228F6D963
:101D3000A36B10221343A363E36B0F3A1343E363D4
:101D4000012002E0002000E0002070BD70B5041EFC
:101D500000D197E0836B002B6BD0A36BDB0600D523
:101D60008AE021688B680422100018401A4200D0D3
:101D700082E0A36B444A13400632FF321343A3634D
:101D80008B68DB070CD4CB6816329343A2681343ED
:101D9000CB60226813691B011B0961680B43136147
:101DA0002268D36839490B40D360237E9B03617E50
:101DB0004A031343A26A012A41D0802252011343ED
:101DC000E26813432269022A3BD003432422A25C27
:101DD00052001343A27E012A35D0E269C221FF31AD
:101DE0008A4202D0216A0A4313432168CA681A430F
:101DF000CA60E26A072A0AD820684169072291432B
:101E0000416120684169E56A2A400A4342612268CB
:101E1000D2681F490A409A4224D0A36B12229343EE
:101E2000023A1343A363E36B0F3A1343E3630120C6
:101E300027E0C36334228354FEF76AFB8DE7020078
:101E4000BDE70420C1E7002903D1802252021343D9
:101E5000C3E7A26B20210A43A263E26B1F390A4346
:101E6000E263BAE70023E363A36B03229343023ADE
:101E70001343A363002004E0A36B10221343A36366
:101E8000012070BD0120FCE7FDFEFFFF19C2FEFF2F
:101E9000E7FF3FC3F8B504000E00170003689B6816
:101EA0005B0738D43423C35C012B37D034230122A1
:101EB000C254FFF7B9FE051E2ED1A26B184B1A4073
:101EC00080235B001343A3630023E3633422A35402
:101ED000236B144A9A62236B134ADA62236B134A08
:101EE0001A6323681C221A602268536810210B436E
:101EF00053602268D3680F390B43D36021684031A7
:101F0000206B3B003200FFF78BFD226893680421B1
:101F10000B43936000E002252800F8BD0225FBE793
:101F2000FEF0FFFFAD1F00081F2000082D20000855
:101F300070B504003423C35C012B32D0342301225A
:101F4000C254FFF7A3FE051E04D034230022E2543E
:101F5000280070BD2268D36801218B43D360206BB9
:101F6000FFF799FD051E03D0A36B40221343A36323
:101F70002268536810218B435360002D0DD120003F
:101F8000FFF7AEFE0500002DDFD1A36B064A13401C
:101F90000432FF321343A363D7E72000FFF7A0FE0C
:101FA000F1E70225D4E7C046FEFEFFFF10B5436A05
:101FB0009A6B502111422BD1996B802292000A43D7
:101FC0009A631A68D068C0210901084213D1597E6A
:101FD000002910D1116809070DD5916849070ED461
:101FE00051680C20814351609A6B0B490A400431BF
:101FF000FF310A439A631800FEF738FE10BD9A6B52
:1020000020210A439A63DA6B1F390A43DA63F2E745
:102010001B6B1B6B9847F1E7FEFEFFFF704710B587
:10202000406AFFF7FBFF10BD7047704710B5406A6C
:10203000836B402213438363C36B3C3A1343C363F4
:10204000FFF7F3FF10BD000010B5040003681A6825
:10205000520702D55A68520705D41A68120729D5C3
:102060005A68120726D5A26BD20604D4A16B80222F
:1020700092000A43A263D968C0221201114213D10F
:10208000627E002A10D11A6812070DD59A6852078D
:1020900031D45A680C218A435A60A36B204A1340FA
:1020A0000432FF321343A3632000FEF7DFFD2368F1
:1020B0000C221A60226813681B0602D553681B069F
:1020C00022D422681368DB0614D55368DB0611D5C9
:1020D000A36A012B02D0D368DB0708D5E36B02218A
:1020E0000B43E363102313602000FFF79EFF236878
:1020F00010221A6010BDA36B20221343A363E36B6D
:102100001F3A1343E363CFE7A26B80235B021343C1
:10211000A3632000FFF788FF236880221A60D0E7BE
:10212000FEFEFFFF30B583B004000023019334337B
:10213000C35C012B00D171E034230122C254026838
:1021400093685B0760D44868354B984243D0936AE4
:102150000D680120A84003439362E36A072B10D95E
:1021600088682268556907232B40984209D0506936
:10217000072398435061206842698D682B401343C0
:1021800043610B681A000B3A012A01D9002040E094
:10219000244A12680B2B09D08023DB031343214A06
:1021A00013600B680B2B04D0002032E080231B044B
:1021B000F4E71D4B18681D49FDF782FF83001B18CB
:1021C0005B00019302E0019B013B0193019B002B0B
:1021D000F9D100201DE0936A0D680120A8408343D7
:1021E00093620B681A000B3A012A01D9002010E013
:1021F0000C4A12680B2B05D00D4B1340094A136093
:10220000002006E00B4BF8E7836B20221343836327
:10221000012034230022E25403B030BD0220FBE74A
:102220000110000008270140C400002040420F00B8
:10223000FFFFBFFFFFFF7FFF70B504003423C35CC7
:10224000012B42D0012334228354026891680B424F
:1022500008D0836B202213438363012034230022A0
:10226000E25470BD836B1A490B400631FF310B43BA
:102270008363D66801310E40D3688B43D360026814
:10228000916880231B060B43936000F097F80500CC
:1022900023689A68002A0FDA00F090F8401B0228A1
:1022A000F6D9A36B12229343023A1343A363342358
:1022B0000022E2540120D4E7DA683243DA60A36BEB
:1022C00002229343A3630020C8E70220C9E7C04667
:1022D000FDFEFFFF30B53C23C35C012B21D03C2326
:1022E0000122C25401330132C25403685C689D6804
:1022F0006E3294430A6822435A6003680A4A934242
:1023000002D00A4A934204D1802295434A682A4364
:102310009A603D230122C254013B0022C254002096
:1023200030BD0220FCE7C046002C01400004004004
:102330007047704710B50400114B1968002901D18E
:10234000012010BDFA208000FDF7BAFE01000D4B00
:102350001868FDF7B5FE00F07BF900280DD1032CBD
:1023600001D90120EDE7013000222100404200F0B8
:102370005FF9054B1C600020E3E70120E1E7C04660
:10238000C8000020C4000020CC00002010B50320AD
:10239000FFF7D0FF041E02D00124200010BDFEF77D
:1023A000B5F8FAE7034A1368034909685B18136034
:1023B0007047C04610050020C8000020014B186877
:1023C0007047C0461005002070B50400FFF7F6FF07
:1023D0000500631C02D0044B1B68E418FFF7EEFFF6
:1023E000401BA042FAD370BDC8000020024AD36946
:1023F0000343D3617047C04600000140F0B5D646A4
:102400004F464646C0B5002369E084683C40A44678
:10241000CC68B44065462C438460446894434A6861
:1024200012099446012265462A409A40224342609E
:10243000C4683C408A68B2402243C2604A68D20005
:102440004CD59A0814001834A4004A4EA759032406
:102450001C40E4000F26A640B743A026F605B04274
:1024600000D180E0444EB0427BD00226A64034002A
:102470003C43404E1832920094518022B7584A464D
:10248000D2433E004C46A6434C68E40302D53E00CE
:102490004C462643374C8027E6518426A7593E00F8
:1024A00016404C68A40302D53E004C462643314CEE
:1024B0008427E65127683E0016404C68E40202D5A6
:1024C0003E004C4626432B4C2660666832404C68E2
:1024D000A40201D54A463243264C626001330C689F
:1024E0002200DA4041D001229A4025001540A94639
:1024F0001442F3D04C68022C01D0122C10D1DC080D
:102500000834A400275807261E40B6000F25B54002
:10251000AF43BC460F69B7403E0065462E43265088
:102520000468A4465E000324A2462700B740B846CC
:10253000FF4365464446A543AC464C685546254096
:102540002C00B44065462C4304604C68651E012D88
:1025500000D85AE7112C00D157E7122C00D067E7BA
:1025600053E7012682E7002680E7E0BCBA46B14681
:10257000A846F0BD001802400004005003690B4259
:1025800001D0012070470020FCE7002A01D08161C2
:1025900070478162FCE7000070B5002811DB8308FA
:1025A000134DC0339B005C5903221040C000FC3225
:1025B00016008640B44389010A40824022435A51A2
:1025C00070BD0F230340083B9B0806339B00094A5C
:1025D000944663445C6803221040C000FC3215003E
:1025E0008540AC4389010A40824022435A60E7E7B4
:1025F00000E100E000ED00E0013880235B04984238
:102600000FD2094A50600948036A1B021B0AC02105
:1026100009060B4303620023936007331360002015
:1026200070470120FCE7C04610E000E000ED00E04C
:1026300010B5FFF7B1FF10BD002805DB1F220240D7
:1026400001239340014A13607047C04600E100E057
:1026500010B5FFF7D1FF10BD30B5036A01229343D7
:102660000362056A426883697324A3430C681C43B0
:1026700002239D438B682B43124DA84205D0124D77
:10268000A84202D0114DA84206D10825AB431D0037
:10269000CB682B430425AB430A4DA84205D00A4D15
:1026A000A84202D0094DA84205D1094D2A404D69E2
:1026B00015438A692A43426084614A68426303621F
:1026C00030BDC046002C014000440140004801409C
:1026D000FFFCFFFF30B5036A164A13400362046A29
:1026E0004268C3697325AB430D681D43124B1C4000
:1026F0008B681B022343114CA04206D0104CA04211
:102700000AD0104CA0420FD106E00F4C1C40CB6801
:102710001B0223430D4C23400D4C22404C692401E5
:1027200014438A69120122434260C5614A68C26348
:10273000036230BDFFFEFFFFFFFDFFFF002C0140E5
:102740000044014000480140FFF7FFFFFFFBFFFF8F
:10275000FFCFFFFF30B5036A114A13400362046ADA
:102760004568C3690F4A13400A6812021A430E4BA8
:102770001C408B681B0323430C4CA04205D00C4C1F
:10278000A04202D00B4CA04204D10B4C2C404D690E
:10279000AD0125434560C2614A680264036230BDF1
:1027A000FFEFFFFFFF8CFFFFFFDFFFFF002C01406B
:1027B0000044014000480140FFBFFFFF0268D368AA
:1027C00001210B43D3600268916807230B40062B5D
:1027D00003D0136801210B431360002070470000F1
:1027E0000268D36801218B43D3600368196A064AE3
:1027F000114207D1196A054A114203D11A68012111
:102800008A431A6000207047111100004404000040
:10281000704770477047704710B50400026813692D
:102820009B070FD5D3689B070CD503235B4213612D
:102830000433037703689B699B0763D0FFF7E9FFC5
:1028400000232377226813695B0712D5D3685B07DF
:102850000FD505235B4213610733237723689A69F9
:10286000C0239B001A4253D02000FFF7D2FF002361
:102870002377226813691B0710D5D3681B070DD572
:1028800009235B4213610D3323772368DB699B07C0
:1028900045D02000FFF7BDFF00232377226813698E
:1028A000DB0612D5D368DB060FD511235B4213611B
:1028B000193323772368DA69C0239B001A4235D085
:1028C0002000FFF7A6FF0023237722681369DB07A8
:1028D00002D5D368DB0730D4226813691B0602D502
:1028E000D3681B0630D4226813695B0602D5D3680F
:1028F0005B0630D4226813699B0602D5D3689B0619
:1029000030D410BDFFF784FF2000FFF783FF97E767
:102910002000FFF77DFF2000FFF77CFFA7E72000E6
:10292000FFF776FF2000FFF775FFB5E72000FFF700
:102930006FFF2000FFF76EFFC5E702235B421361C4
:102940002000FEF707FAC7E781235B4213612000EE
:10295000FFF7EFFCC7E741235B4213612000FFF75D
:102960005AFFC7E721235B4213612000FFF7E0FC19
:10297000C7E7000003681A4A904202D0194A904201
:1029800003D1702293434A681343154A90420BD0F7
:10299000144A904208D0144A904205D0134A9042FB
:1029A00002D0134A904203D1124A1340CA6813431B
:1029B000802293434A69134303608B68C3620B68A8
:1029C0008362074B984205D0084B984202D0084BCF
:1029D000984201D10B690363012343617047C046EC
:1029E000002C014000040040002000400044014051
:1029F00000480140FFFCFFFF70B5041E14D03D23CA
:102A0000C35C002B0AD03D2502236355210001C978
:102A1000FFF7B0FF01236355002070BD3C33002257
:102A2000C254FDF7BFFDEEE70120F6E770B5041EC6
:102A300014D03D23C35C002B0AD03D2502236355EF
:102A4000210001C9FFF796FF01236355002070BDE7
:102A50003C330022C254FDF707FEEEE70120F6E703
:102A600070B5036A102293430362026A4568836962
:102A7000144C23400C6824021C4320239A438B6887
:102A80001B011343104A904206D0104A90420BD0CB
:102A90000F4A904210D107E0802293431E00CB687A
:102AA0001B013343403A93430A4A15404A69920056
:102AB0002A438D69AD001543456084614A6882638D
:102AC000036270BDFF8CFFFF002C014000440140F9
:102AD00000480140FFF3FFFF70B504000D003C23E8
:102AE000C35C012B69D03C230121C1540133013166
:102AF000C154082A4DD019D8002A2FD0042A40D119
:102B000000682900FFF7ACFF2268916980231B0150
:102B10000B4393612268936929490B4093612168B3
:102B20008B692A69120213438B612AE00C2A28D18F
:102B300000682900FFF70EFE2268D16980231B017F
:102B40000B43D3612268D3691D490B40D3612168CF
:102B5000CB692A6912021343CB6112E00068290095
:102B6000FFF77AFD2268936908210B43936122687D
:102B7000936904398B4393612268936929690B43F4
:102B800093613D230122E254013B0022E2540020E4
:102B900070BD00682900FFF79DFD2268D3690821F8
:102BA0000B43D3612268D36904398B43D361226814
:102BB000D36929690B43D361E3E70220E8E7C04604
:102BC000FFFBFFFF10B51F23194001248C40036A4F
:102BD000A3430362036A8A401343036210BD0000EB
:102BE00010B5040000680122FFF7ECFF23680D4ACE
:102BF000934205D00C4A934202D00C4A934204D12E
:102C0000596C802212020A435A6422689168072391
:102C10000B40062B03D0136801210B4313600020E7
:102C200010BDC046002C0140004401400048014056
:102C3000064B00225A60064A536904210B43536134
:102C400080231B05034A1A607047C0461405002004
:102C50000020024021433412054B00225A60054AED
:102C6000536902210B435361FF2303607047C04641
:102C70001405002000200240044A516980231B01F2
:102C80000B435361FF2303607047C046002002409E
:102C9000084B5B69002B01DB00207047054B064A9F
:102CA0009A60064A9A605B69002B01DB0020F4E71A
:102CB0000120F2E70020024023016745AB89EFCDF8
:102CC000064B5969802212060A435A615B69002B40
:102CD00001DB012070470020FCE7C04600200240D5
:102CE00010B50400FFF76AFB0419074B1B69DB03EF
:102CF00005D5FFF763FBA042F7D3032003E0024BA7
:102D0000024A1A61002010BD00200240118000001C
:102D100070B505000C00824B1B78012B00D1FCE044
:102D20007F4B01221A707F4B5A68520B07231340C6
:102D30007D498022520088587C4A9B009B581A6823
:102D4000FF21114088423CD0774A8020400011503A
:102D50005988C905C90D043011501968090A053888
:102D60000140882676009151596808408421490025
:102D70005050D9884905490D862040001150996866
:102D8000C903C90B08301150D968C903C90B0430F5
:102D9000115019690904090C043011505B8A9B0415
:102DA0009B0C9021490053502B68012B52D0022BD1
:102DB00064D0032B00D185E00120594B00221A700A
:102DC00070BD594E822040003658100CC005C00D11
:102DD0008642B9D1544E882040003658120A113824
:102DE00002409642B0D150488422520086585A6818
:102DF000FF2010408642A7D14B4E8620400030581D
:102E0000120C5205520D90429ED18A225200B058A7
:102E10009A68D203D20B904200D095E78C225200E0
:102E2000B058DA68D203D20B904200D08CE78E22E1
:102E30005200B6581A6990B2864200D084E73A4EE2
:102E4000902040003058120C9204920C904200D016
:102E50007AE7A9E7FA208000FFF742FF002801D0B7
:102E60000120AAE7FFF7E4FEFA208000FFF738FF11
:102E70002D4A536904218B4353619EE7FA20800059
:102E8000FFF72EFF002844D101235B4223606E68C8
:102E90000130AB68DB016A689B18B34200D88CE74D
:102EA0003000FFF7D9FEFA208000FFF719FF1E4A15
:102EB000536902218B435361002801D18036E8E732
:102EC00026607AE7FA208000FFF70AFF002822D167
:102ED00001235B422360EE6801302B691B03EA6823
:102EE0009B18B34200D868E73000FFF7C5FEFA2010
:102EF0008000FFF7F5FE0C4A53690D490B40536102
:102F0000002804D180235B019C466644E5E72660E7
:102F100053E7012051E701204FE7022050E7C04668
:102F20001405002000100240002002402841000843
:102F3000FFF7FFFF70B50E001500584B1B78012BF3
:102F400000D1A9E0554B01221A70554B5A68520B1B
:102F5000072313405349802252008858524A9B004D
:102F60009B581968FF220A40904233D04D4C802173
:102F7000490062505A88D205D20D043162501A6855
:102F8000120A05390A408820400022505A68114030
:102F900084225200A150DA885205520D8621490040
:102FA00062509A68D203D20B08316250DA68D203B9
:102FB000D20B043162501A691204120C04316250AF
:102FC0005B8A9B049B0C90225200A350730649D04D
:102FD000012070BD334C822040002458080CC005ED
:102FE000C00D8442C2D12F4C882040002458090AC9
:102FF000113801408C42B9D12A48842149004458F3
:103000005968FF2008408442B0D1264C86204000F9
:103010002058090C4905490D8842A7D18A21490049
:1030200060589968C903C90B88429FD18C21490017
:103030006058D968C903C90B884200D096E78E2131
:1030400049006458196988B2844200D08EE7154C53
:10305000902040002058090C8904890C884200D037
:1030600084E7B3E7FA208000FFF73AFE002803D098
:103070000A4B00221A70ACE72900300000F09EFED7
:10308000FA208000FFF72CFE064A536901218B438A
:1030900053610028ECD09CE702209AE71405002039
:1030A0000010024000200240284100080268D36856
:1030B00006490B40D360026853692331FF318B43CB
:1030C000536146232022C2547047C046DFFEFFFFF3
:1030D0004523C35C212B01D00220704782688023E6
:1030E0005B019A4218D0C36A1A7803685A60C36AAF
:1030F0000133C362438E013B9BB24386002B09D14F
:103100000268D36880218B43D3600268D36840395A
:103110000B43D3600020E0E70369002BE3D1C36ACF
:103120001B880268DB05DB0D5360C36A0233C36290
:10313000E0E70000036A5B060BD5026853690949A2
:103140000B40416A0B435361426A80235B019A4200
:1031500000D070470268536903490B40816A0B43F2
:103160005361F6E7FFEFFFFFFF9FFFFF70B504001D
:103170000268136933490B40C1680B4313618268CD
:1031800003691A4343691A430168CB682E48034018
:103190001343CB60E169226853692C4803400B4319
:1031A0005361226853692A490B40A1690B4353615B
:1031B000E26980231B019A4220D0FEF7A5FB830021
:1031C00018188300C01861688900FCF779FF0600B1
:1031D0006421FCF775FF050164213000FCF7F6FF60
:1031E000080132306421FCF76BFFF0230340ED1837
:1031F0000F2303402268ED18956070BDFEF784FB35
:10320000830018188300C01861684900FCF758FF54
:1032100006006421FCF754FF050164213000FCF72F
:10322000D5FFC80032306421FCF74AFF4300F82282
:1032300052001340ED18072303402268ED189560F3
:10324000DBE7C046FFDFFFFFF3E9FFFFFFF7FFFF0C
:10325000FFFCFFFF10B5041E34D04523C35C002BD8
:1032600026D045232422E2542268D36816490B4015
:10327000D3602000FFF77AFF236A002B1ED122685B
:10328000136912490B4013612268536908218B436B
:1032900053612268D16880239B010B43D3600023D4
:1032A000A36420334522A3540132A354002010BD4F
:1032B00044330022C254FDF7AFF9D2E72000FFF7F4
:1032C00039FFDCE70120F2E7FFDFFFFFFFF7FFFF39
:1032D00010B54523C35C202B1AD100291AD0002A2F
:1032E0001AD02433C35C012B18D044230124C454C6
:1032F000C162028642860022826445212034445401
:10330000C2540268D3683B310B43D360002000E015
:10331000022010BD0120FCE70120FAE70220F8E7B7
:1033200030B54623C35C202B23D1002923D0002AAB
:1033300023D02433C35C012B21D044230124C45463
:103340004163028742870022826446212225455438
:10335000C2540268D168BC330B43D360026853691E
:10336000234353610268D36820210B43D3600020BC
:1033700000E0022030BD0120FCE70120FAE7022036
:10338000F8E710B50268D36840218B43D36045232A
:103390002022C254FDF7ECF9002010BD10B54623E1
:1033A000C35C222B35D1826880235B019A420DD009
:1033B00003685A68436B591C41631A70438F013B81
:1033C0009BB24387002B0ED0002010BD0369002B59
:1033D000EED1426B03685B68DB05DB0D1380436B4A
:1033E00002334363EAE70168CB6820229343CB6052
:1033F0000168CB68084C2340CB6001684B690334FB
:10340000FF34A3434B614623C254FDF789F90020E2
:10341000DBE70220D9E7C046FFFEFFFF7047000050
:1034200070B5040002681368D5685269190706D19F
:103430009A060DD5AA060BD5FFF7B0FF10E00121C3
:103440000800104011420CD190225200154208D1C0
:103450001A0601D52A065FD45B0601D56D065FD436
:1034600070BDDA0705D5EA0503D5A26C01210A4330
:10347000A2645A0705D5002803D0A26C02210A4392
:10348000A2649A0705D5002803D0A26C04210A4340
:10349000A2641A0705D5002803D0A26C08210A43AC
:1034A000A264A26C002ADBD09B0601D5AD0621D414
:1034B00023685A6940231340A26C120701D4002BE1
:1034C00024D02000FFF7F2FD23685A69520619D56F
:1034D0005A6940218A435A61236C002B0ED0124A4C
:1034E0005A63206CFEF7FAFA0028B9D0206C436BBF
:1034F0009847B5E72000FFF751FFD9E72000FFF715
:103500008DFFADE72000FFF789FFA9E72000FFF757
:1035100085FF0023A364A3E72000FFF7D9FD9FE701
:103520002000FFF72EFF9BE72D35000810B5406AFD
:10353000002343874386FFF771FF10BD00B58DB0B0
:103540001C22002105A8FCF7A9FF1022002101A8D8
:10355000FCF7A4FF02230593FE3308930E4B1B6870
:10356000DB04DB0C8022120213430A9305A8FDF74B
:10357000D1FF002802D001200DB000BD0723019328
:103580000023029303930493002101A8FEF700F99E
:103590000028F1D00120EFE7100FFF1F0D488546EE
:1035A0000D480E490E4A002302E0D458C45004339B
:1035B000C4188C42F9D30B4A0B4C002301E0136072
:1035C0000432A242FBD3FDF743FFFCF743FFFDF7B4
:1035D000FFF9FEE700100020C0000020D40000200A
:1035E000D0700008D4000020FC050020FEE710B5D4
:1035F0000400FCF7DBFE2418013C20780A38434223
:103600005841C0B210BD10B500F0B9F910BD10B5E9
:1036100000F0A4F910BD00000FB410B582B004ABE7
:1036200010CB01930B4B1B78002B0ED12000FFF722
:10363000DEFF084B187001AA2100002000F0C8FA34
:1036400002B010BC08BC04B018470349002000F0C9
:1036500093FBEBE7D0000020484100080FB410B501
:1036600082B004AB10CB01930B4B1B78002B0ED117
:103670002000FFF7BCFF084B187001AA21000020B2
:1036800000F0A6FA02B010BC08BC04B01847034909
:10369000002000F071FBEBE7D0000020584100084B
:1036A0000369C268934204D881688A1AD018013825
:1036B0007047981A0138FBE7F8B5CE46474680B503
:1036C00004000E001700C568836899465B1B984686
:1036D000934209D94068401900F05BFBED19E560A1
:1036E000C0BCB946B046F8BD406840191A0000F0A9
:1036F00050FB4B46ED1AED196068310041442A0039
:1037000000F047FBE560EBE7F8B5CE46474680B5ED
:10371000060088461700C4680023994614E0B26882
:103720001B1BD218013A14E0706800192A004146A8
:1037300000F02FFBA944A8447F1B6419B368A3427F
:1037400011D0F460002F10D033699C42E7D21A1BCD
:10375000013AB3681B1B934200D913003D009F42FE
:10376000E2D91D00E0E70024EBE74846C0BCB946BB
:10377000B046F8BD10B5134C482200212000FCF7DC
:103780008DFE0123236163610F4AA2610F4BE36148
:10379000802323620023A3626362E36222630C4AF4
:1037A00062630822A2632364E363636406E00F227A
:1037B000D21A0849895C034AD15401330F2BF6D938
:1037C00010BDC046B4050020684100083405002043
:1037D0002C05002074410008F0B5D6464F464646F9
:1037E000C0B50500894614002A4B1B78002B1FD05A
:1037F000284B6A005219D2009B181E6CDB6B98464E
:103800009E4218D8002743469B1B9C4200D91C00AF
:10381000002C31D1002F05D01E4B6A005219D20066
:103820009B181E643800E0BCBA46B146A846F0BDFD
:10383000FFF7A0FFDCE7174B6A005219D2009B1874
:103840009B6B9B1B27009C4200D91F00114A6B00F9
:103850005B19DB0092469A445346596B89193A002A
:10386000484600F096FAB944E41BF61953469B6BA0
:10387000B342C8D10026C6E7064B6A005219D200EF
:103880009B18596B89192200484600F082FA3F19AB
:103890003619BFE7B405002010B50B00EFF3108414
:1038A000012181F310881900FFF796FF84F3108837
:1038B00010BD0000F8B503000F001600421C5400B4
:1038C000A418E400174AA4184000C018C000121839
:1038D000D56A012D12D0022D1DD0002D02D0002559
:1038E0002800F8BD2000FFF7DBFE8642F8D8320042
:1038F00039002000FFF7E0FE3500F1E72000FFF778
:10390000CFFE3500864200D905002A00390020008C
:10391000FFF7D2FEE4E732002000FFF7F5FE0500D6
:10392000DEE7C046B4050020F8B504000D0016001F
:10393000094B1B78002B0CD0EFF31087012181F38A
:103940001088320029002000FFF7B4FF87F31088A9
:10395000F8BDFFF70FFFEFE7B405002000B583B017
:1039600001226B46D91D0020FFF796FF012803D1E5
:103970006B46D87903B000BD01204042FAE710B58C
:10398000FFF7F8FE10BD10B504008268531C4068B4
:10399000834205D820688154A360E3680133E36063
:1039A000A26863689A4200D010BD21682069FFF7C1
:1039B000BBFFA368984203D001235B42E360F3E7B7
:1039C0000023A360F0E70000F8B5DE4657464E46F8
:1039D0004546E0B581460D0014001E000A9B9A463C
:1039E0000B9F08000123984605E02100FCF768FBC7
:1039F00001239C46E044A042F7D2B04500D2B04635
:103A000001231A003A4093463B421AD15346002BF9
:103A100017D0BF0703D5002E19D0202700E020279C
:103A20005346002B0DD0C2450BD901235B429C4667
:103A3000E24439004846FFF7A6FF4B46DB68002BFF
:103A4000EEDA4B46DB68002B2EDB012703E0302744
:103A5000E6E7013E6743012EFBD839002800FCF75A
:103A60002FFB8442F6D900E0070039002800FCF75C
:103A700027FB060039002800FCF7A8FB0D00164BB9
:103A8000995D4846FFF77FFF4B46DB68002B05DB5F
:103A900021003800FCF714FBA742E5D25B46002B5F
:103AA00002D05346002B05D1F0BCBB46B246A94616
:103AB000A046F8BD5346002BF6D0C245F4D90123E9
:103AC0005B429C46E24420214846FFF75CFF4B46A0
:103AD000DB68002BEEDAE7E70C420008F0B5D646CB
:103AE0004F4680B583B00600894615009A460A9F66
:103AF000CB17C8185840012403E02900FCF76AFBE3
:103B000001348542F9DD544500D25446002F06D0D9
:103B10004B46002B02DB0B9B5B0700D5013F0B9B49
:103B20009B0702D55346002B04D00B9BDB0701D427
:103B3000002F18D1F368002B10DB4B46002B1FDB46
:103B40000B9B5B0723D4F368002B07DB03230B9A43
:103B50001340022B20D0F368002B2FDA03B0C0BC37
:103B6000BA46B146F0BD002FE4D0A742E2D9013FEA
:103B700020213000FFF707FFF368002BF3DAD9E7C5
:103B80005B4299462D213000FFF7FDFEDBE72B213C
:103B90003000FFF7F8FED6E75346002BDBD1002FAD
:103BA000D9D0002FD7D0A742D5D9013F302130003E
:103BB000FFF7E9FEF368002BF3DACCE70B9B0193E8
:103BC000009753462A0049463000FFF7FDFEC5E73F
:103BD000F0B599B006000C00150003AB1393402319
:103BE0001493002315931790169364E0002001228C
:103BF0000AE0002206E0302B03D1022318430134EF
:103C000000E00022002A13D023782D2B08D0F2D810
:103C1000232B09D02B2BECD1042318430134F1E7DB
:103C2000012318430134EDE7082318430134E9E781
:103C3000002722781300303BDBB2092B06D8013471
:103C4000BB00DB195B009F18303FF2E72E2A02D041
:103C50000023227811E00134002305E001349A00AA
:103C6000D3185B005B18303B21780A00303AD2B29F
:103C7000092AF3D9EDE7013422786C2AFBD0682AAF
:103C8000F9D0252A5ED012D3782A10D8582A0ED31C
:103C9000583AD1B220290AD88A0036498A5897461C
:103CA0002B681A1D2A60197813A8FFF76CFE0134DF
:103CB000169B002B4BDB21780134002947D02529A6
:103CC00094D013A8FFF75FFEF2E72A68111D296060
:103CD0001168019000970A2213A8FFF7FFFEE6E79C
:103CE0002A68111D29601168019000970A2213A803
:103CF000FFF76AFEDBE72A68111D29601168019051
:103D00000097102213A8FFF75FFED0E72B681A1D5B
:103D10002A601F68397801370029C8D013A8FFF737
:103D200032FE169B002BF5DAC1E72B681A1D2A60BC
:103D300019680023019308330093102213A8FFF79A
:103D400043FEB4E7252113A8FFF71DFEAFE7169B3E
:103D5000002B06DD159A002A06D1169B159A9B1892
:103D60001693169819B0F0BD03A93000FFF7DCFDDB
:103D7000F3E7C046884100080EB400B582B003AB3B
:103D800002CB019301AAFFF723FF02B008BC03B0E6
:103D90001847002310B59A4200D110BDCC5CC45422
:103DA0000133F8E7F8B5C046F8BC08BC9E4670473A
:0C3DB000F8B5C046F8BC08BC9E46704741
:103DBC0030B50D4A5369012423435361EFF3108C42
:103DCC0072B600231F2B0CD804C904C00133DBB21C
:103DDC001F2BF7D1044C6569802212032A436261C0
:0C3DEC00F0E78CF3108830BD002002408E
:103DF800020301040005000000093D0000127A00DA
:103E08000024F4004086510100366E014F70656E43
:103E1800466C6170206D6F64756C652068617320F5
:103E280073746172746564210A00000072656365C9
:103E38006976656420636F6D6D616E643A20202534
:103E4800630A000054696D656F7574210A000000EB
:103E5800506F736974696F6E3A202564202025734A
:103E68000A00000049646C65210A0000436F6E6611
:103E780069672073746F726564210A00416374690D
:103E88007665210A00000000436F6E6669673A0A8A
:103E980000000000456E636F646572206F6666738C
:103EA80065743A2025640A004952206C696D69746A
:103EB800733A0A0049522073656E736F7220256445
:103EC8003A202025640A0000567472696D3A20254C
:103ED800640A0000426173652073706565643A2066
:103EE80025640A0053796D626F6C207365743A0A11
:103EF800000000002573200053746174653A202582
:103F080073202D3E2025730A00000000526561646D
:103F18002025732070726F70657274790A00000032
:103F2800526561642025732070726F7065727479B0
:103F3800206E6F7420737570706F727465640A00F8
:103F480057726974652025732070726F706572747A
:103F5800790A000057726974652025732070726FA2
:103F68007065727479206E6F7420737570706F72DB
:103F78007465640A000000005A1200086012000804
:103F8800661200086C120008721200087812000805
:103F98007E1200087278486561646572000000004E
:103FA80072656164416C6C5F7278436E74000000E6
:103FB80072656164416C6C5F727844617461000081
:103FC80072656164416C6C5F74784461746100006F
:103FD8007772697465416C6C5F72784461746100D2
:103FE80077726974655365715F72784461746100B2
:103FF80077726974655365715F7278546F5478008D
:104008006669726D7761726500000000636F6D6D9F
:10401800616E6400636F6C756D6E456E64000000C0
:104028006368617261637465724D617053697A6522
:10403800000000006368617261637465724D6170AD
:10404800000000006F66667365740000767472691C
:104058006D0000006368617261637465720000003E
:104068006261736553706565640000009C3F0008D9
:10407800A83F0008B83F0008C83F0008D83F00081C
:10408800E83F0008F83F00080082010101C801016B
:10409800010100000000000008400008144000086A
:1040A8001C400008284000083C4000084C4000081C
:1040B800544000085C400008684000080000000008
:1040C80000000000000000000000000000000000E8
:1040D80001000000020000000300000004000000CE
:1040E80000000000000000000000000000000000C8
:1040F80000000000000000000000000000000000B8
:10410800010000000200000003000000040000009D
:104118000600000007000000080000000900000079
:104128001C0FFF1F300FFF1F440FFF1F580FFF1FEB
:104138006C0FFF1F1C0FFF1F1C0FFF1F1C0FFF1F03
:104148001B5B323B33376D44201B5B306D00000036
:104158001B5B313B33366D49201B5B306D00000023
:104168005465726D696E616C00000000000000000B
:104178000000545452205245474745530000000060
:10418800F63C0008AE3C0008AE3C0008AE3C000817
:10419800AE3C0008AE3C0008AE3C0008AE3C00084F
:1041A800AE3C0008AE3C0008AE3C0008A03C00084D
:1041B800CA3C0008AE3C0008AE3C0008AE3C000813
:1041C800AE3C0008AE3C0008AE3C0008AE3C00081F
:1041D800AE3C0008AE3C0008AE3C0008AE3C00080F
:1041E8002A3D0008AE3C0008AE3C00080C3D000823
:1041F800AE3C0008E03C0008AE3C0008AE3C0008BD
:10420800F63C0008303132333435363738394142DC
:044218004344454690
:04421C003104000861
:044220000504000889
:046FFC00EFBEADDE59
:107000000000C800C800C800C800C800C8000000D0
:10701000200000004100000042000000430000008A
:10702000440000004500000046000000470000004A
:1070300048000000490000004A0000004B0000002A
:107040004C0000004D0000004E0000004F0000000A
:1070500050000000510000005200000053000000EA
:1070600054000000550000005600000057000000CA
:1070700058000000590000005A00000030000000D5
:107080003100000032000000330000003400000036
:107090003500000036000000370000003800000016
:1070A00039000000E282AC00240000002100000052
:1070B0003F0000002E0000002C0000003A000000FD
:1070C0002F00000040000000230000002600000008
:1070D000FEFF300000127A000100000004000000F2
:0470E00001000000AB
:040000050800359D1D
:00000001FF
