:103F4000000010082414110D4605D21194042D29E7
:103F50004D0C9313053549055413551575256521E9
:103F6000301A4C0C3323D41037360E0E281EB00AEC
:103F70002124CB0FC322BD282300A009FF3FFF3F10
:103F8000FF3FFF3FFF3FFF3FFF3FFF3FFF3FFF3F41
:103F9000FF3FFF3FFF3FFF3FFF3FFF3FFF3FFF3F31
:103FA000FF3FFF3FFF3FFF3FFF3FFF3FFF3FFF3F21
:103FB000FF3FFF3FFF3FFF3FFF3FFF3FFF3FFF3F11
:00000001FF